S00B00006164632E73726563F1
S11300000C9434000C9449000C9449000C9449005D
S11300100C9449000C9449000C9449000C94490038
S11300200C9449000C9449000C9449000C94490028
S11300300C9449000C9449000C9449000C94490018
S11300400C9449000C9449000C9449000C94490008
S11300500C9449000C9449000C9449000C944900F8
S11300600C9449000C94490011241FBECFEFD8E032
S1130070DEBFCDBF11E0A0E0B1E0E8E3F4E002C0F0
S113008005900D92A430B107D9F70E9459000C9441
S11300901A020C940000EAE7F0E08FE8808380EE17
S11300A080937C008081806480838091790090E0DB
S11300B00895CF93DF931F92CDB7DEB70E948A00D5
S11300C080E00E944B00BC0180E090E00E94EA00C6
S11300D02AE535EF49EF5EE30E9450010E94BB0020
S11300E0DC01CB014AE0BE016F5F7F4F0E94E50156
S11300F0CE0101960E949C0080E091E00E949C0049
S11301002FEF83ED90E3215080409040E1F700C051
S11301100000D6CF87E68093C40088E18093C100B5
S113012086E08093C2000895E0ECF0E0908195FFB2
S1130130FDCF8093C60008950F931F93CF93DF9351
S1130140FC01808181110AC011C08991882371F05A
S11301500E9494000C171D07C1F708C08F010E946C
S11301609400E801219601501F4FEFCFDF91CF910A
S11301701F910F9108950E942F0188F09F5798F0C6
S1130180B92F9927B751B0F0E1F0660F771F881F98
S1130190991F1AF0BA95C9F714C0B13091F00E94B2
S11301A04901B1E008950C944901672F782F8827FD
S11301B0B85F39F0B93FCCF3869577956795B395D9
S11301C0D9F73EF490958095709561957F4F8F4F48
S11301D09F4F0895E89409C097FB3EF4909580954D
S11301E0709561957F4F8F4F9F4F9923A9F0F92FF9
S11301F096E9BB279395F695879577956795B79577
S1130200F111F8CFFAF4BB0F11F460FF1BC06F5F5C
S11302107F4F8F4F9F4F16C0882311F096E911C06E
S1130220772321F09EE8872F762F05C0662371F08F
S113023096E8862F70E060E02AF09A95660F771FA3
S1130240881FDAF7880F9695879597F9089557FDD3
S11302509058440F551F59F05F3F71F04795880F30
S113026097FB991F61F09F3F79F0879508951216C7
S113027013061406551FF2CF4695F1DF08C0161673
S113028017061806991FF1CF869571056105089424
S11302900895E894BB2766277727CB0197F908953B
S11302A00E9463010C94D4010E94C60138F00E949C
S11302B0CD0120F0952311F00C94BD010C94C301E1
S11302C011240C944A010E94270170F3959FC1F3F5
S11302D0950F50E0551F629FF001729FBB27F00DF0
S11302E0B11D639FAA27F00DB11DAA1F649F662745
S11302F0B00DA11D661F829F2227B00DA11D621F94
S1130300739FB00DA11D621F839FA00D611D221F4D
S1130310749F3327A00D611D231F849F600D211D31
S1130320822F762F6A2F11249F5750409AF0F1F0B4
S113033088234AF0EE0FFF1FBB1F661F771F881F1D
S113034091505040A9F79E3F510580F00C94BD0197
S11303500C944A015F3FE4F3983ED4F38695779575
S11303606795B795F795E7959F5FC1F7FE2B880FC3
S1130370911D9695879597F9089597F99F6780E859
S113038070E060E008959FEF80EC089500240A94E3
S11303901616170618060906089500240A9412165C
S11303A01306140605060895092E0394000C11F48F
S11303B0882352F0BB0F40F4BF2B11F460FF04C03C
S11303C06F5F7F4F8F4F9F4F0895BB274A3031F4A3
S11303D0992322F4BDE2909581959F4F0C94F101ED
S11303E0BB27FB015527AA27880F991FAA1FA4170B
S11303F010F0A41B83955051B9F7A05DAA3308F0FF
S1130400A95DA193009779F7B111B1931192CB0132
S11304100C940A02DC01FC01672F71917723E1F748
S1130420329704C07C916D9370836291AE17BF07BD
S10B0430C8F30895F894FFCF0E
S10704380D0A0000A5
S9030000FC
